S01400004C61626F7261746F72696F352E737265635D
S11300000C9434000C9446000C9446000C94460066
S11300100C9446000C9446000C9446000C94460044
S11300200C9446000C9446000C9446000C94460034
S11300300C9446000C9446000C9446000C94460024
S11300400C94A1000C9446000C9446000C944600B9
S11300500C9446000C9488000C9446000C944600C2
S11300600C9446000C94460011241FBECFEFD8E038
S1130070DEBFCDBF21E0A0E0B1E001C01D92A330FE
S1130080B207E1F70E9466000C9406010C9400008C
S1130090ECE7F0E01082808187668083EAE7F0E095
S11300A0108280818F6880830895F8940E944800AC
S11300B00E94AB000E94C60014BC83E085BD83E8A7
S11300C086BD81E080936E00789408950E94550067
S11300D02091020130E0A0EABFE00E94F7002FEF78
S11300E033E040E050E00E94D500C90188519C4FA4
S11300F090930101809300010E94C1002FEF89EFCA
S113010090E0215080409040E1F700C00000E0CF33
S11301101F920F920FB60F9211248F93EF93FF93B8
S11301208091790080930201EAE7F0E080818064A5
S11301308083FF91EF918F910F900FBE0F901F90CE
S113014018951F920F920FB60F9211240F900FBEA5
S11301500F901F90189584B1826084B982E88093CF
S113016080008AE1809381008FE39CE9909387006B
S11301708093860088EB9BE09093890080938800AD
S113018008959093890080938800089584B18460D1
S113019084B9E0E8F0E080818062808388EB9BE0B2
S11301A090938B0080938A000895A1E21A2EAA1BD3
S11301B0BB1BFD010DC0AA1FBB1FEE1FFF1FA21713
S11301C0B307E407F50720F0A21BB30BE40BF50B10
S11301D0661F771F881F991F1A9469F76095709599
S11301E0809590959B01AC01BD01CF010895A29F1C
S11301F0B001B39FC001A39F700D811D1124911DF7
S1130200B29F700D811D1124911D0895F894FFCFA4
S9030000FC
