S01400004C61626F7261746F72696F352E737265635D
S11300000C9434000C943E000C943E000C943E007E
S11300100C943E000C943E000C943E000C943E0064
S11300200C943E000C943E000C943E000C943E0054
S11300300C943E000C943E000C943E000C943E0044
S11300400C943E000C943E000C943E000C943E0034
S11300500C943E000C943E000C943E000C943E0024
S11300600C943E000C943E0011241FBECFEFD8E048
S1130070DEBFCDBF0E9462000C94CC000C94000043
S1130080ECE7F0E01082808187648083EAE7F0E0A7
S113009010828081876880830895F8940E944000CC
S11300A00E94800078940895EAE7F0E080818064FB
S11300B0808380917A0086FDFCCF809178009091B6
S11300C0790008950E944D000E9454009C01A0EA0A
S11300D0BFE00E94BD002FEF33E040E050E00E94FB
S11300E09B00C90188519C4F0E9496002FEF89EF15
S11300F090E0215080409040E1F700C00000E4CF40
S113010084B1826084B982E8809380008AE180931C
S113011081008FE39CE9909387008093860088EBAD
S11301209BE09093890080938800089590938900C0
S1130130809388000895A1E21A2EAA1BBB1BFD011F
S11301400DC0AA1FBB1FEE1FFF1FA217B307E407B2
S1130150F50720F0A21BB30BE40BF50B661F771F0A
S1130160881F991F1A9469F76095709580959095EA
S11301709B01AC01BD01CF010895A29FB001B39FC3
S1130180C001A39F700D811D1124911DB29F700D9C
S10F0190811D1124911D0895F894FFCFE7
S9030000FC
