:100000000C9434000C9446000C9446000C9446006A
:100010000C9446000C9446000C9446000C94460048
:100020000C9446000C9446000C9446000C94460038
:100030000C9446000C9446000C9446000C94460028
:100040000C9426010C9446000C9446000C94460037
:100050000C9446000C949E000C9446000C944600B0
:100060000C9446000C94460011241FBECFEFD8E03C
:10007000DEBFCDBF21E0A0E0B1E001C01D92A930FC
:10008000B207E1F70E9467000C949E010C940000F7
:10009000ECE7F0E01082809100019081877080642D
:1000A000892B8083EAE7F0E0108280818F6880836B
:1000B0008081806480830895F8940E9448000E94A3
:1000C000F4000E9409010E941701789408950E948B
:1000D0005C002091050130910601A0EDB7E00E947F
:1000E0007B010F2ECC24CA94F3E0DF2EE12CF12CFF
:1000F000F02DA70196010E945901C9018C509E4F15
:100100000E9404012091030130910401A0EDB7E0A9
:100110000E947B01A70196010E945901C9018C50E0
:100120009E4F0E94120180910101909102019695CB
:100130008795969587950E942301CBCF1F920F92AA
:100140000FB60F9211245F936F937F938F939F93BA
:10015000AF93BF93EF93FF9380910001813069F0DB
:1001600018F0823099F01AC080917800909179004F
:10017000909306018093050111C0809178009091C1
:100180007900909304018093030108C08091780066
:100190009091790090930201809301018091000178
:1001A00090E0019663E070E00E94450180930001B9
:1001B000ECE7F0E0908180910001907F8770892BBF
:1001C0008083EAE7F0E0808180648083FF91EF9193
:1001D000BF91AF919F918F917F916F915F910F90A0
:1001E0000FBE0F901F90189584B1826084B982E889
:1001F0008093800082E18093810080E29EE490936E
:1002000087008093860008959093890080938800EA
:10021000089584B1846084B9E0E8F0E08081806270
:100220008083089590938B0080938A0008958AB10B
:1002300080628AB914BC83E085BD81E080936E0042
:100240008FEF86BD08958093070108951F920F9246
:100250000FB60F9211248F939F9390910801809174
:100260000701981710F01BB802C080E28BB980918B
:1002700008018F5F809308018FEF86BD9F918F915A
:100280000F900FBE0F901F90189597FB072E16F436
:10029000009407D077FD09D00E948A0107FC05D0A1
:1002A0003EF4909581959F4F0895709561957F4F8D
:1002B0000895A1E21A2EAA1BBB1BFD010DC0AA1FA7
:1002C000BB1FEE1FFF1FA217B307E407F50720F0BF
:1002D000A21BB30BE40BF50B661F771F881F991F3A
:1002E0001A9469F760957095809590959B01AC0183
:1002F000BD01CF010895A29FB001B39FC001A39F8C
:10030000700D811D1124911DB29F700D811D11244E
:10031000911D0895AA1BBB1B51E107C0AA1FBB1F5B
:10032000A617B70710F0A61BB70B881F991F5A9581
:10033000A9F780959095BC01CD010895F894FFCF61
:00000001FF
